:020000008F2847
:10000800FF00030E8301C6000A08C7008A017008B2
:10001800A3007B08A2007C08A1007D08A0008B1C1F
:1000280016288B1000302506031D1C2800302406D6
:10003800031D20288815081500302506031D2628CD
:1000480001302406031D3B2888110811081688145E
:100058001F30FB007130FC001E30FD00FD0B322804
:10006800FC0B3228FB0B32280000081288100030E5
:100078002506031D412802302406031D45280814BF
:10008800881600302506031D4B2803302406031D5F
:10009800602808108812081688141F30FB00713079
:1000A800FC001E30FD00FD0B5728FC0B5728FB0BEE
:1000B8005728000008128810A40A0319A50A00305E
:1000C8002506031D692804302406031D6D28A40194
:1000D800A5012308F0002208FB002108FC002008E5
:1000E800FD0047088A00460E8300FF0E7F0E0900B8
:0E00F800831203133F088A003E0882000800AE
:100106007C208A110A128000840ABE0A0319BF0ADB
:08011600F003031D832808001B
:10011E0083120313A401A501A6010130A70002302A
:10012E00A8000330A9000430AA000530AB00063049
:10013E00AC000730AD000830AE000930AF00103013
:10014E00B0001130B1001230B2001330B3001430D1
:10015E00B4001530B5001630B6001730B7001830A1
:10016E00B8001930B9002030BA002130BB0022305F
:10017E00BC002330BD00073083169F008801831218
:10018E00880183168701831287010130831686004A
:10019E00FF308312860083160516831205160B1286
:1001AE008B13831601138312051EA2290B12FF3027
:1001BE00860088011730C0000030C1008030410633
:1001CE00F00080307002031DEE2800304002031C48
:1001DE002C29051AF3282C294008263E84000008F5
:1001EE00870000304106031DFE2817304006031D10
:1001FE0002298815081500304106031D0829033011
:10020E004006031D0C290811881400304106031DF9
:10021E00122900304006031D19298811081688106E
:10022E00081108140B30FB002630FC005D30FD0079
:10023E00FD0B1F29FC0B1F29FB0B1F2900000000C3
:10024E000130C002031CC103E5280F30C20000308C
:10025E00C30080304306F00080307002031D392940
:10026E0000304202031CA1294208263E84000008E9
:10027E008700051A4329A12900304306031D492989
:10028E000C304206031D4D29081288160030430615
:10029E00031D532900304206031D8E2988120810B3
:1002AE00881408160330C4000030C500803045069F
:1002BE00F00080307002031D662900304402031CDA
:1002CE008C294408263E840000088700003045062D
:1002DE00031D732900304406031D79298810081266
:1002EE00881508150B30FB002630FC005D30FD0034
:1002FE00FD0B7F29FC0B7F29FB0B7F2900000000E3
:10030E000130C402031CC5035D293D0887000B3074
:10031E00FB002630FC005D30FD00FD0B9429FC0B2C
:10032E009429FB0B9429000000000130C202031C2B
:10033E00C3033029DA28051AAB29860188010B166A
:0C034E008B17051AAB29A829DA28AC2966
:02400E004A2F37
:00000001FF
